:020000040800F2
:100000000050002085120008BD110008C31100082F
:10001000C9110008CF110008D51100080000000028
:10002000000000000000000000000000DB110008DC
:10003000E711000800000000F3110008FF1100089C
:10004000CD120008CD120008CD120008CD12000814
:10005000CD120008CD120008CD120008CD12000804
:10006000CD120008CD120008CD120008CD120008F4
:10007000CD120008CD120008CD120008CD120008E4
:10008000CD120008CD120008CD120008CD120008D4
:10009000CD120008CD120008CD120008CD120008C4
:1000A000CD120008CD120008CD120008CD120008B4
:1000B000CD120008CD120008CD120008CD120008A4
:1000C000CD120008CD120008CD120008CD12000894
:1000D000CD120008CD120008CD120008CD12000884
:1000E000CD120008CD120008CD120008000000005B
:1000F0000000000000000000000000000000000000
:0C01000000000000000000005FF808F1A3
:10010C0010B5054C237833B9044B13B10448AFF345
:10011C0000800123237010BD5C0000200000000053
:10012C00703F000808B5034B1BB103490348AFF3FC
:10013C00008008BD0000000060000020703F000837
:10014C00034613F8012B002AFBD1181A013870470B
:10015C0080B586B002AF0346FB71FB7923F00F0329
:10016C00FB73FB791B01BB73FB7B43F00C03DBB212
:10017C003B72FB7B43F00803DBB27B72BB7B43F02F
:10018C000C03DBB2BB72BB7B43F00803DBB2FB722C
:10019C0007F108026423009304234E21034802F064
:1001AC0031F800BF1037BD4680BD00BFD80000201D
:1001BC0080B586B002AF0346FB71FB7923F00F03C9
:1001CC00FB73FB791B01BB73FB7B43F00D03DBB2B1
:1001DC003B72FB7B43F00903DBB27B72BB7B43F0CE
:1001EC000D03DBB2BB72BB7B43F00903DBB2FB72CA
:1001FC0007F108026423009304234E21034802F004
:10020C0001F800BF1037BD4680BD00BFD8000020EC
:10021C0080B582B000AF8020FFF79AFF00237B608F
:10022C0005E02020FFF7C4FF7B6801337B607B680F
:10023C00452BF6DD00BF00BF0837BD4680BD80B53D
:10024C0082B000AF786039607B68002B03D07B688C
:10025C00012B05D009E03B6843F080033B6004E0D0
:10026C003B6843F0C0033B6000BF3B68DBB2184601
:10027C00FFF76EFF00BF0837BD4680BD80B500AFED
:10028C00322001F081F83020FFF762FF052001F0E9
:10029C007BF83020FFF75CFF012001F075F830206F
:1002AC00FFF756FF0A2001F06FF82020FFF750FFF0
:1002BC000A2001F069F82820FFF74AFF012001F01D
:1002CC0063F80820FFF744FF012001F05DF80120DE
:1002DC00FFF73EFF012001F057F8012001F054F820
:1002EC000620FFF735FF012001F04EF80C20FFF738
:1002FC002FFF00BF80BD80B582B000AF786006E0F4
:10030C007B685A1C7A601B781846FFF751FF7B6894
:10031C001B78002BF4D100BF00BF0837BD4680BD51
:10032C0080B582B000AF0346FB710F4B00221A6000
:10033C000BE00D4B1B6801330B4A13600A4B1B6817
:10034C00322B02D9084B1B680AE02021074801F028
:10035C00CDFD03461A46FB799A42EAD0024B1B6844
:10036C0018460837BD4680BD7401002000080140C6
:10037C0090B591B000AF7860396007F11803002296
:10038C001A605A609A60DA6001233B620023FB61B9
:10039C002023BB6102237B6207F1180319468848AE
:1003AC0001F020FC012000F0EFFF00233B62012351
:1003BC00FB612023BB6102237B6207F11803194602
:1003CC007F4801F00FFC002220217D4801F0A5FDA3
:1003DC00142000F0D9FF01233B620023FB61202392
:1003EC00BB6102237B6207F118031946744801F0C4
:1003FC00F9FB72B600BF0023FB6303E000BFFB6B8D
:10040C000133FB63FB6B9F2BF8DD00BF20216C4895
:10041C0001F06CFD0346002BF8D000BF202168488A
:10042C0001F064FD0346012BF8D00023BB6327E0E9
:10043C000020FFF775FF02466249BB6B41F8232091
:10044C00BB6B5C1C0120FFF76BFF03465D4A42F857
:10045C002430BB6B9B007A6813445A49BA6B51F831
:10046C0022201A60BB6B5A1CBB6B01339B00796852
:10047C000B44544951F822201A60BB6B0233BB6306
:10048C00BB6B632BD4DD62B600BF3B68013300222B
:10049C001A703B68023300221A703B680333002247
:1004AC001A703B68043300221A7000237B633DE012
:1004BC007B6BDB007A6813441B68FB627B6BDB0095
:1004CC0004337A6813441B68BB62FB6A312B02D875
:1004DC00BB6A312B04D94FF400513B4801F035FD78
:1004EC007B6B002B00DA0733DB1019460A463B689E
:1004FC0013441A783B680B445200D2B21A70BA6A91
:10050C00FB6A9A420FD97B6B002B00DA0733DB10A6
:10051C0019460A463B6813441A783B680B4442F070
:10052C000102D2B21A707B6B01337B637B6B272B7E
:10053C00BEDD3B681A783B6801331B781344DAB292
:10054C003B6802331B781344DAB23B6803331B78E5
:10055C00134487F833303B6804331B7897F8332007
:10056C009A4228D0194A07F10C0307CA03C31A8010
:10057C000233120C1A7007F10C031846FFF7E0FD5A
:10058C0003469AB207F10C010A23114802F0A8FEA7
:10059C003B68013300221A703B68023300221A7048
:1005AC003B68033300221A703B68043300221A7034
:1005BC004FF0FF33FFE718464437BD4690BD00BFF0
:1005CC00000801407801002000100140883F00081D
:1005DC002C010020B0B5ADF5806D00AF4B4B07F58D
:1005EC0074740FCB84E80F000023C7F8E0330023AA
:1005FC00A7F8F6330023A7F8F43300F063FE00F0FD
:10060C0039FB00F065FC00F08FFB00F037FC00F0CC
:10061C00C9FB00F005FC3E4800F0B2FF322000F0B0
:10062C00B3FE3C4800F0ACFF322000F0ADFEFFF70B
:10063C0025FEFFF7EDFD4FF47A7000F0A5FE42F2B7
:10064C00107000F0A1FE07F574731846FFF778FDE3
:10065C0003469AB207F574710A232F4802F040FE44
:10066C0041F2883000F090FE2C492D48FFF780FEB7
:10067C002A4B9B78C7F8F033284BDB78C7F8EC3360
:10068C00264B1B78C7F8E833244B5B78C7F8E43368
:10069C002023A7F86433234A07F5567307CA03C30C
:1006AC001A800233120C1A7007F1A400D7F8EC333D
:1006BC00D7F8F0231C4902F093FF07F58470D7F8A4
:1006CC00E433D7F8E823184902F08AFF104801F008
:1006DC0005F80346A7F8F6330E4800F0FFFF034673
:1006EC00A7F8F433B7F8F62307F567730F491846E4
:1006FC0002F076FFB7F8F42307F55A730B49184646
:10070C0002F06EFF0023C7F8FC331FE0C43F000863
:10071C0078000020A80000202C0100209804002064
:10072C0008030020D83F0008943F00089C3F0008B5
:10073C0007F58063A3F52572D7F8FC331344002228
:10074C001A70D7F8FC330133C7F8FC33D7F8FC33F5
:10075C00B3F5967FECDB07F1A40207F5B6731146EF
:10076C00184602F065FF07F5597207F5B673114686
:10077C00184602F05DFF07F5847207F5B673114653
:10078C00184602F055FF07F5597207F5B673114676
:10079C00184602F04DFF07F5677207F5B673114660
:1007AC00184602F045FF07F5597207F5B673114666
:1007BC00184602F03DFF07F55A7207F5B67311465D
:1007CC00184602F035FF07F5567207F5B673114659
:1007DC00184602F02DFF40F6B83000F0D5FD7D4BE9
:1007EC0007F552740FCB07C4238007F552731846D4
:1007FC00FFF7A6FC03469AB207F552710A23764816
:10080C0002F06EFD4FF47A7000F0BEFD734B07F5ED
:10081C004E740FCB84E80F0007F54E731846FFF7A4
:10082C008FFC03469AB207F54E710A236A4802F010
:10083C0057FD4FF47A7000F0A7FD694B07F547742C
:10084C001D460FCD0FC495E8070084E8070007F597
:10085C0047731846FFF774FC03469AB207F54771C5
:10086C000A235D4802F03CFD4FF47A7000F08CFDD9
:10087C005C495D48FFF77CFD5A4B9B78C7F8F03319
:10088C00584BDB78C7F8EC33564B1B78C7F8E8337A
:10089C00544B5B78C7F8E433544B07F543740FCBD8
:1008AC0007C4237007F543731846FFF749FC03464A
:1008BC009AB207F543710A23474802F011FD4FF431
:1008CC0000514B4801F041FBFFF7A2FC3846D7F82A
:1008DC00EC33D7F8F023474902F082FE07F13400DD
:1008EC00D7F8E433D7F8E823434902F079FE07F14F
:1008FC0034031846FFF724FC03461A4607F1340369
:10090C0013443E491A460B461B88138000210020D5
:10091C00FFF795FC3B461846FFF7EDFC0021012044
:10092C00FFF78DFC07F134031846FFF7E4FC07F1E1
:10093C00A400D7F8EC33D7F8F023314902F050FE7D
:10094C0007F58470D7F8E433D7F8E8232C4902F084
:10095C0047FE2C4800F014FE322000F015FD29480B
:10096C0000F0BCFE0346A7F8F633274800F008FE5B
:10097C00322000F009FD244800F0B0FE0346A7F831
:10098C00F433B7F8F62307F567732049184602F0DD
:10099C0027FE07F58063A3F580731D4A07CA83E819
:1009AC00070007F540731846FFF7CAFB03469AB2D7
:1009BC0007F540710A23084802F092FCB7F8F423BB
:1009CC0007F55A731149184602F00AFE0023C7F8BE
:1009DC00F8332DE0E43F00082C010020F43F000820
:1009EC000440000898040020080300202040000860
:1009FC0000100140A03F0008B43F0008C03F0008B1
:100A0C00943F000878000020A80000209C3F0008BC
:100A1C003040000807F58063A3F52572D7F8F8334A
:100A2C00134400221A70D7F8F8330133C7F8F8339F
:100A3C00D7F8F833B3F5967FECDB07F1A40207F592
:100A4C00B6731146184602F0F3FD07F5597207F517
:100A5C00B6731146184602F0EBFD07F5847207F5E4
:100A6C00B6731146184602F0E3FD07F5597207F507
:100A7C00B6731146184602F0DBFD07F5677207F5F1
:100A8C00B6731146184602F0D3FD07F5597207F5F7
:100A9C00B6731146184602F0CBFD07F55A7207F5EE
:100AAC00B6731146184602F0C3FD07F5567207F5EA
:100ABC00B6731146184602F0BBFD07F58063A3F52B
:100ACC006673644A1C4615460FCD0FC40FCD0FC478
:100ADC000FCD0FC495E8070003C4227007F168031B
:100AEC001846FFF72DFB03469AB207F168010A235B
:100AFC00594802F0F5FB4FF47A7000F045FC07F50D
:100B0C008063A3F58A73554A1C4615460FCD0FC456
:100B1C002B68236007F53B731846FFF711FB034660
:100B2C009AB207F53B710A234B4802F0D9FB0A2015
:100B3C0000F02AFC07F58063A3F58E73484A92E80F
:100B4C00030083E8030007F539731846FFF7F8FA3A
:100B5C0003469AB207F539710A233F4802F0C0FBED
:100B6C004FF47A7000F010FC07F58063A3F59A73CC
:100B7C003C4A1C4615460FCD0FC495E80300206077
:100B8C000434218002340B0C237007F533731846A0
:100B9C00FFF7D6FA03469AB207F533710A232E48AB
:100BAC0002F09EFB0A2000F0EFFB4FF400512E48A0
:100BBC0001F0CBF907F5B6731846FFF7C1FA0346F7
:100BCC009AB207F5B6714FF4FA73234802F088FB1A
:100BDC004FF47A7000F0D8FB07F58063A3F5A87387
:100BEC00224A1C4615460FCD0FC495E8070003C4D6
:100BFC00227007F52C731846FFF7A2FA03469AB237
:100C0C0007F52C710A23144802F06AFB4FF47A7032
:100C1C0000F0BAFB07F58063A3F5B473144A1C46C5
:100C2C0015460FCD0FC495E80300206004342170E5
:100C3C0007F526731846FFF783FA03469AB207F5B1
:100C4C0026710A23044802F04BFB4FF47A7000F033
:100C5C009BFB0DE63C4000082C010020784000086E
:100C6C008C4000089440000800100140AC40000883
:100C7C00C840000880B594B000AF07F128032822C3
:100C8C000021184602F0CCFC07F1140300221A6074
:100C9C005A609A60DA601A613B1D00221A605A6031
:100CAC009A60DA600123BB624FF48033FB6200234D
:100CBC003B630123BB6302237B644FF48033BB642F
:100CCC004FF40023FB6407F12803184601F0F2FDF2
:100CDC000346002B01D000F053F90F237B61022354
:100CEC00BB610023FB6100233B6200237B6207F1A5
:100CFC0014030121184602F05FF80346002B01D0C3
:100D0C0000F03EF902237B604FF48043FB603B1DF7
:100D1C00184602F0DFF90346002B01D000F030F941
:100D2C0000BF5037BD4680BD80B584B000AF3B1DC1
:100D3C0000221A605A609A60184B194A1A60174BB5
:100D4C0000229A60154B00221A73144B00221A755C
:100D5C00124B4FF46022DA61104B00225A600F4B99
:100D6C0001221A610D4800F033FB0346002B01D021
:100D7C0000F006F906237B600123BB600023FB60B7
:100D8C003B1D1946054800F0B5FC0346002B01D06D
:100D9C0000F0F6F800BF1037BD4680BD780000208B
:100DAC000024014080B584B000AF3B1D00221A60C6
:100DBC005A609A60184B194A1A60174B00229A60B5
:100DCC00154B00221A73144B00221A75124B4FF458
:100DDC006022DA61104B00225A600F4B01221A611B
:100DEC000D4800F0F5FA0346002B01D000F0C8F8CE
:100DFC0007237B600123BB600023FB603B1D19466E
:100E0C00054800F077FC0346002B01D000F0B8F841
:100E1C0000BF1037BD4680BDA8000020002801404F
:100E2C0080B500AF124B134A1A60114B124A5A602C
:100E3C000F4B00229A600E4B0022DA600C4B4FF4E1
:100E4C0080421A610A4B00225A61094B00229A61B6
:100E5C00074B0022DA61064B00221A62044801F0AB
:100E6C008DF80346002B01D000F08AF800BF80BD3E
:100E7C00D800002000540040A086010080B500AFCF
:100E8C00114B124A1A60104B4FF4E1325A600E4B60
:100E9C0000229A600C4B0022DA600B4B00221A6184
:100EAC00094B0C225A61084B00229A61064B002216
:100EBC00DA61054802F0C4F90346002B01D000F0BA
:100ECC005FF800BF80BD00BF2C010020003801403E
:100EDC0080B588B000AF07F1100300221A605A6089
:100EEC009A60DA60244B9B69234A43F010039361A8
:100EFC00214B9B6903F01003FB60FB681E4B9B6945
:100F0C001D4A43F0200393611B4B9B6903F02003A4
:100F1C00BB60BB68184B9B69174A43F00403936191
:100F2C00154B9B6903F004037B607B68124B9B6938
:100F3C00114A43F0080393610F4B9B6903F00803BC
:100F4C003B603B6800224FF400510C4800F0E5FF79
:100F5C004FF400533B6101237B610023BB610223EF
:100F6C00FB6107F110031946044800F03BFE00BF7B
:100F7C002037BD4680BD00BF00100240001001406C
:100F8C0080B400AF72B600BFFEE7000080B483B03F
:100F9C0000AF0E4B9B690D4A43F0010393610B4B61
:100FAC009B6903F001037B607B68084BDB69074A94
:100FBC0043F08053D361054BDB6903F080533B60F6
:100FCC003B6800BF0C37BD4680BC70470010024028
:100FDC0080B58AB000AF786007F1180300221A6060
:100FEC005A609A60DA607B681B68284A934222D167
:100FFC00274B9B69264A43F400739361244B9B69EE
:10100C0003F400737B617B69214B9B69204A43F09D
:10101C00040393611E4B9B6903F004033B613B6922
:10102C004023BB610323FB6107F1180319461948E0
:10103C0000F0D8FD26E07B681B68174A934221D14B
:10104C00134B9B69124A43F480639361104B9B6969
:10105C0003F48063FB60FB680D4B9B690C4A43F007
:10106C00040393610A4B9B6903F00403BB60BB68E8
:10107C008023BB610323FB6107F118031946054864
:10108C0000F0B0FD00BF2837BD4680BD00240140F4
:10109C0000100240000801400028014080B588B0D3
:1010AC0000AF786007F1100300221A605A609A6052
:1010BC00DA607B681B68154A934223D1144B9B69F9
:1010CC00134A43F008039361114B9B6903F0080327
:1010DC00FB60FB68C0233B6112237B610323FB6134
:1010EC0007F1100319460B4800F07CFD084BDB6937
:1010FC00074A43F40013D361054BDB6903F4001377
:10110C00BB60BB6800BF2037BD4680BD00540040AB
:10111C0000100240000C014080B588B000AF786030
:10112C0007F1100300221A605A609A60DA607B683B
:10113C001B681C4A934231D11B4B9B691A4A43F4DE
:10114C0080439361184B9B6903F48043FB60FB68FD
:10115C00154B9B69144A43F004039361124B9B6932
:10116C0003F00403BB60BB684FF400733B610223C4
:10117C007B610323FB6107F1100319460B4800F058
:10118C0031FD4FF480633B6100237B610023BB6125
:10119C0007F110031946054800F024FD00BF203765
:1011AC00BD4680BD003801400010024000080140DF
:1011BC0080B400AFFEE780B400AFFEE780B400AFB0
:1011CC00FEE780B400AFFEE780B400AFFEE780B46A
:1011DC0000AF00BFBD4680BC704780B400AF00BFFD
:1011EC00BD4680BC704780B400AF00BFBD4680BC1C
:1011FC00704780B500AF00F0ABF800BF80BD0000B9
:10120C0080B586B000AF7860144A154BD31A7B6159
:10121C007B693B61134B1B68002B02D1114B124AAB
:10122C001A60104B1A687B6813443A699A4207D2C9
:10123C0002F00EFA03460C221A604FF0FF3309E05D
:10124C00084B1B68FB60074B1A687B681344054A04
:10125C001360FB6818461837BD4680BD005000204F
:10126C00000400009C040020F005002080B400AFB6
:10127C0000BFBD4680BC7047FFF7F8FF0B480C4918
:10128C000C4A002302E0D458C4500433C4188C42D6
:10129C00F9D3094A094C002301E013600432A2423D
:1012AC00FBD302F0DBF9FFF795F970470000002043
:1012BC005C000020484100085C000020EC05002088
:1012CC00FEE7000080B500AF084B1B68074A43F0EF
:1012DC0010031360032000F051FC0F2000F008F8FD
:1012EC00FFF754FE0023184680BD00BF00200240CB
:1012FC0080B582B000AF7860124B1A68124B1B7825
:10130C0019464FF47A73B3FBF1F3B2FBF3F31846BF
:10131C0000F05BFC0346002B01D001230EE07B6840
:10132C000F2B0AD8002279684FF0FF3000F031FC07
:10133C00064A7B681360002300E001231846083737
:10134C00BD4680BD000000200800002004000020E5
:10135C0080B400AF054B1B781A46054B1B68134431
:10136C00034A136000BFBD4680BC704708000020D4
:10137C00A004002080B400AF024B1B681846BD4689
:10138C0080BC7047A004002080B584B000AF7860AA
:10139C00FFF7F0FFB8607B68FB60FB68B3F1FF3FC1
:1013AC0005D00A4B1B781A46FB681344FB6000BF40
:1013BC00FFF7E0FF0246BB68D31AFA689A42F7D8E7
:1013CC0000BF00BF1037BD4680BD00BF0800002025
:1013DC0080B586B000AF78600023FB7500233B61BD
:1013EC000023BB600023FB607B68002B01D1012331
:1013FC00BEE07B689B68002B7B689B6A002B09D145
:10140C007B680022DA627B68002283F824207868EB
:10141C00FFF7DEFD786800F0BFFA0346FB757B68CA
:10142C009B6A03F01003002B40F09980FB7D002B8E
:10143C0040F095807B689B6A23F4885323F0020369
:10144C0043F002027B689A627B685A687B68DB69AE
:10145C001A437B681B7B5B001343BA681343BB6066
:10146C007B689B68B3F5807F03D07B689B68012BFE
:10147C0002D14FF4807300E000233A6913433B61BF
:10148C007B681B7D012B19D17B681B7B002B09D141
:10149C007B689B69013B5A033B69134343F400632C
:1014AC003B610BE07B689B6A43F020027B689A628D
:1014BC007B68DB6A43F001027B68DA627B681B683D
:1014CC005B6823F469417B681B683A690A435A607C
:1014DC007B681B689A68284B13407A681268B96855
:1014EC000B4393607B689B68B3F5807F03D07B686C
:1014FC009B68012B04D17B681B69013B1B05FB60BE
:10150C007B681B68DB6A23F470017B681B68FA68D4
:10151C000A43DA627B681B689A68184B1340BA68F6
:10152C009A420BD17B680022DA627B689B6A23F0BB
:10153C00030343F001027B689A6218E07B689B6AA4
:10154C0023F0120343F010027B689A627B68DB6A1B
:10155C0043F001027B68DA620123FB7507E07B68CC
:10156C009B6A43F010027B689A620123FB75FB7D3A
:10157C0018461837BD4680BDFDF7E1FFFE0E1FFF74
:10158C0080B584B000AF78600023FB737B6893F860
:10159C002430012B01D1022398E07B68012283F8CF
:1015AC002420786800F09EF90346FB73FB7B002B2C
:1015BC0040F087807B689B6A23F4407323F001031F
:1015CC0043F480727B689A627B681B68414A934241
:1015DC0005D1414B5B6803F47023002B15D17B685C
:1015EC009B6A23F480127B689A627B681B685B6839
:1015FC0003F48063002B26D07B689B6A23F4405352
:10160C0043F480527B689A621DE07B689B6A43F4CA
:10161C0080127B689A627B681B682F4A934204D0C5
:10162C007B681B682B4A93420DD12B4B5B6803F4F0
:10163C008063002B07D07B689B6A23F4405343F4F0
:10164C0080527B689A627B689B6A03F48053002B00
:10165C0006D07B68DB6A23F006027B68DA6202E064
:10166C007B680022DA627B68002283F824207B6886
:10167C001B686FF002021A607B681B689B6803F49E
:10168C006023B3F5602F13D17B681B68114A93421A
:10169C0005D1114B5B6803F47023002B08D17B68D8
:1016AC001B689A687B681B6842F4A0029A600CE085
:1016BC007B681B689A687B681B6842F480129A608E
:1016CC0003E07B68002283F82420FB7B184610374C
:1016DC00BD4680BD002801400024014080B483B089
:1016EC0000AF78607B681B68DB6C18460C37BD4616
:1016FC0080BC704780B485B000AF7860396000233F
:10170C00FB730023BB607B6893F82430012B01D161
:10171C000223DCE07B68012283F824203B685B68B1
:10172C00062B1CD87B681B68596B3B685A681346A0
:10173C009B001344053B1F2202FA03F3DB431940C1
:10174C003B6818683B685A6813469B001344053B7A
:10175C0000FA03F27B681B680A435A633CE03B685F
:10176C005B680C2B1CD87B681B68196B3B685A6830
:10177C0013469B001344233B1F2202FA03F3DB4363
:10178C0019403B6818683B685A6813469B00134421
:10179C00233B00FA03F27B681B680A431A631BE0C5
:1017AC007B681B68D96A3B685A6813469B001344D4
:1017BC00413B1F2202FA03F3DB4319403B681868D4
:1017CC003B685A6813469B001344413B00FA03F2F2
:1017DC007B681B680A43DA623B681B68092B1CD9BF
:1017EC007B681B68D9683B681A6813465B00134416
:1017FC001E3B072202FA03F3DB4319403B6898684F
:10180C003B681A6813465B0013441E3B00FA03F254
:10181C007B681B680A43DA6019E07B681B681969EE
:10182C003B681A6813465B001344072202FA03F361
:10183C00DB4319403B6898683B681A6813465B00A9
:10184C00134400FA03F27B681B680A431A613B6875
:10185C001B68102B03D03B681B68112B32D17B68A3
:10186C001B681D4A934225D17B681B689B6803F457
:10187C000003002B26D17B681B689A687B681B6869
:10188C0042F400029A603B681B68102B1AD1134B70
:10189C001B68134AA2FB03239A0C13469B001344A8
:1018AC005B00BB6002E0BB68013BBB60BB68002B0C
:1018BC00F9D107E07B689B6A43F020027B689A624F
:1018CC000123FB737B68002283F82420FB7B1846E2
:1018DC001437BD4680BC7047002401400000002036
:1018EC0083DE1B4380B584B000AF78600023FB60BF
:1018FC000023BB607B681B689B6803F00103012B12
:10190C0040D07B681B689A687B681B6842F00102B8
:10191C009A601F4B1B681F4AA2FB03239B0CBB60E6
:10192C0002E0BB68013BBB60BB68002BF9D1FFF741
:10193C0021FDF8601FE0FFF71DFD0246FB68D31A7E
:10194C00022B18D97B681B689B6803F00103012BE1
:10195C0011D07B689B6A43F010027B689A627B68AB
:10196C00DB6A43F001027B68DA627B68002283F851
:10197C002420012307E07B681B689B6803F00103AC
:10198C00012BD8D1002318461037BD4680BD00BFAF
:10199C000000002083DE1B4380B584B000AF78606C
:1019AC000023FB607B681B689B6803F00103012B21
:1019BC002ED17B681B689A687B681B6822F0010239
:1019CC009A60FFF7D7FCF8601BE0FFF7D3FC0246E8
:1019DC00FB68D31A022B14D97B681B689B6803F035
:1019EC000103012B0DD17B689B6A43F010027B68CD
:1019FC009A627B68DB6A43F001027B68DA6201233E
:101A0C0007E07B681B689B6803F00103012BDCD0AB
:101A1C00002318461037BD4680BD000080B485B049
:101A2C0000AF78607B6803F00703FB600C4BDB684E
:101A3C00BB60BA684FF6FF031340BB60FB681A0229
:101A4C00BB68134343F0BF6343F40033BB60044AE9
:101A5C00BB68D36000BF1437BD4680BC704700BF65
:101A6C0000ED00E080B400AF044BDB681B0A03F010
:101A7C0007031846BD4680BC704700BF00ED00E070
:101A8C0080B483B000AF03463960FB7197F907301F
:101A9C00002B0ADB3B68DAB20C4997F907301201CC
:101AAC00D2B20B4483F800230AE03B68DAB208494F
:101ABC00FB7903F00F03043B1201D2B20B441A76EC
:101ACC0000BF0C37BD4680BC704700BF00E100E092
:101ADC0000ED00E080B489B000AFF860B9607A60C6
:101AEC00FB6803F00703FB61FB69C3F10703042BDD
:101AFC0028BF0423BB61FB690433062B02D9FB69A5
:101B0C00033B00E000237B614FF0FF32BB6902FA1C
:101B1C0003F3DA43BB681A407B699A404FF0FF31FC
:101B2C007B6901FA03F3D9437B680B4013431846D6
:101B3C002437BD4680BC704780B582B000AF78605A
:101B4C007B68013BB3F1807F01D301230FE00A4A8C
:101B5C007B68013B53600F214FF0FF30FFF790FF84
:101B6C00054B00229A60044B07221A60002318468A
:101B7C000837BD4680BD00BF10E000E080B582B0E4
:101B8C0000AF78607868FFF749FF00BF0837BD46A3
:101B9C0080BD80B586B000AF0346B9607A60FB7338
:101BAC0000237B61FFF75EFF78617A68B96878691A
:101BBC00FFF790FF024697F90F3011461846FFF7D2
:101BCC005FFF00BF1837BD4680BD80B582B000AF47
:101BDC0078607868FFF7B0FF034618460837BD46B3
:101BEC0080BD000080B48BB000AF786039600023FA
:101BFC007B6200233B6269E101227B6A02FA03F3F8
:101C0C00FB613B681B68FA691340BB61BA69FB69ED
:101C1C009A4240F058813B685B689A4A93425ED086
:101C2C00984A934275D8984A934258D0964A934210
:101C3C006FD8964A934252D0944A934269D8944AA8
:101C4C0093424CD0924A934263D8924A934246D0E4
:101C5C00904A93425DD8122B2AD8122B59D801A244
:101C6C0052F823F0EB1C0008C51C0008D71C000818
:101C7C00191D00081F1D00081F1D00081F1D00084E
:101C8C001F1D00081F1D00081F1D00081F1D000838
:101C9C001F1D00081F1D00081F1D00081F1D000828
:101CAC001F1D00081F1D0008CD1C0008E11C0008AA
:101CBC00794A934213D02CE03B68DB683B6229E005
:101CCC003B68DB6804333B6224E03B68DB68083329
:101CDC003B621FE03B68DB680C333B621AE03B68FD
:101CEC009B68002B02D104233B6213E03B689B688A
:101CFC00012B05D108233B627B68FA691A6109E064
:101D0C0008233B627B68FA695A6103E000233B625B
:101D1C0000E000BFBB69FF2B01D87B6801E07B684A
:101D2C0004337B61BB69FF2B02D87B6A9B0002E00A
:101D3C007B6A083B9B003B617B691A680F213B69FE
:101D4C0001FA03F3DB431A40396A3B6901FA03F3E6
:101D5C001A437B691A603B685B6803F08053002B65
:101D6C0000F0B1804D4B9B694C4A43F001039361E9
:101D7C004A4B9B6903F00103BB60BB68484A7B6A12
:101D8C009B08023352F82330FB607B6A03F0030399
:101D9C009B000F2202FA03F3DB43FA681340FB604B
:101DAC007B68404A934213D07B683F4A93420DD0E4
:101DBC007B683E4A934207D07B683D4A934201D1EF
:101DCC00032306E0042304E0022302E0012300E0E5
:101DDC0000237A6A02F0030292009340FA681343DC
:101DEC00FB602F497B6A9B080233FA6841F8232079
:101DFC003B685B6803F48013002B06D02D4B9A686C
:101E0C002C49BB6913438B6006E02A4B9A68BB696B
:101E1C00DB43284913408B603B685B6803F4001379
:101E2C00002B06D0234BDA682249BB691343CB60E5
:101E3C0006E0204BDA68BB69DB431E491340CB60DC
:101E4C003B685B6803F40033002B06D0194B5A68CF
:101E5C001849BB6913434B6006E0164B5A68BB69C3
:101E6C00DB43144913404B603B685B6803F48033DD
:101E7C00002B21D00F4B1A680E49BB6913430B6022
:101E8C0021E000BF000032100000311000002210D1
:101E9C000000211000001210000011100010024070
:101EAC000000014000080140000C014000100140FE
:101EBC0000140140000401400B4B1A68BB69DB4362
:101ECC00094913400B607B6A01337B623B681A68DB
:101EDC007B6A22FA03F3002B7FF48EAE00BF00BFA7
:101EEC002C37BD4680BC70470004014080B485B0DF
:101EFC0000AF78600B467B807B689A687B881340C8
:101F0C00002B02D00123FB7301E00023FB73FB7B4E
:101F1C0018461437BD4680BC704780B483B000AF00
:101F2C0078600B467B8013467B707B78002B03D04C
:101F3C007A887B681A6103E07B881A047B681A61D3
:101F4C0000BF0C37BD4680BC704780B485B000AF75
:101F5C0078600B467B807B68DB68FB607A88FB686B
:101F6C0013401A04FB68D9437B880B401A437B68E7
:101F7C001A6100BF1437BD4680BC704780B584B071
:101F8C0000AF78607B68002B01D101232BE17B68CB
:101F9C0093F83D30DBB2002B06D17B68002283F82E
:101FAC003C207868FFF77AF87B68242283F83D2080
:101FBC007B681B681A687B681B6822F001021A6038
:101FCC007B681B681A687B681B6842F400421A60C5
:101FDC007B681B681A687B681B6822F400421A60D5
:101FEC0001F032F8F8607B685B68814A934207D84D
:101FFC00FB68804A934294BF01230023DBB206E0C6
:10200C00FB687D4A934294BF01230023DBB2002B73
:10201C0001D00123E7E0FB68784AA2FB03239B0C69
:10202C00BB607B681B685B6823F03F017B681B68A7
:10203C00BA680A435A607B681B681B6A23F03F012D
:10204C007B685B686A4A934202D8BB68013309E03B
:10205C00BB684FF4967202FB03F3694AA2FB03239D
:10206C009B0901337A6812680B4313627B681B6807
:10207C00DB6923F44F4222F0FF027B685B685C490A
:10208C008B4219D8FB68591E7B685B685B00B1FBFF
:10209C00F3F3591C40F6FC730B40002B0AD0FB6881
:1020AC00591E7B685B685B00B1FBF3F30133C3F330
:1020BC000B0351E004234FE07B689B68002B11D18C
:1020CC00FB68581E7B6859680B465B000B44B0FBE1
:1020DC00F3F30133C3F30B03002B0CBF01230023D9
:1020EC00DBB212E0FB68581E7B6859680B469B00FC
:1020FC000B4499000B44B0FBF3F30133C3F30B0314
:10210C00002B0CBF01230023DBB2002B01D00123D9
:10211C0022E07B689B68002B0ED1FB68581E7B6805
:10212C0059680B465B000B44B0FBF3F30133C3F36C
:10213C000B0343F400430FE0FB68581E7B6859689F
:10214C000B469B000B4499000B44B0FBF3F301339B
:10215C00C3F30B0343F44043796809681343CB6121
:10216C007B681B681B6823F0C0017B68DA697B689D
:10217C001B6A1A437B681B680A431A607B681B68DE
:10218C009B6823F4034323F0FF037A6811697A6890
:10219C00D26811437A6812680B4393607B681B68A2
:1021AC00DB6823F0FF017B685A697B689B691A43E3
:1021BC007B681B680A43DA607B681B681A687B685B
:1021CC001B6842F001021A607B6800221A647B686B
:1021DC00202283F83D207B6800221A637B68002252
:1021EC0083F83E20002318461037BD4680BD00BF43
:1021FC00A08601007F841E00FF083D0083DE1B4388
:10220C00D34D621080B588B002AFF8607A601A4680
:10221C000B467B8113463B81FFF7ACF87861FB687A
:10222C0093F83D30DBB2202B40F0E0807B690093CB
:10223C00192301227049F86800F064F90346002B59
:10224C0001D00223D3E0FB6893F83C30012B01D181
:10225C000223CCE0FB68012283F83C20FB681B685E
:10226C001B6803F00103012B07D0FB681B681A687D
:10227C00FB681B6842F001021A60FB681B681A6855
:10228C00FB681B6822F400621A60FB68212283F849
:10229C003D20FB68102283F83E20FB6800221A6464
:1022AC00FB687A685A62FB683A895A85FB685B8DD1
:1022BC009AB2FB681A85FB68504ADA6279897B69A5
:1022CC003A6AF86800F09CF80346002B01D0012311
:1022DC008DE000233B61FB681B685B693B61FB681D
:1022EC001B689B693B613B6966E07A69396AF868EF
:1022FC0000F022FA0346002B0DD0FB681B6C042B5C
:10230C0007D1FB681B681A68FB681B6842F40072F3
:10231C001A6001236BE0FB685B6A1A78FB681B6828
:10232C001A61FB685B6A5A1CFB685A62FB685B8D1E
:10233C009BB2013B9AB2FB685A85FB681B8D013B33
:10234C009AB2FB681A85FB681B685B6903F004038F
:10235C00042B1BD1FB681B8D002B17D0FB685B6A11
:10236C001A78FB681B681A61FB685B6A5A1CFB686D
:10237C005A62FB685B8D9BB2013B9AB2FB685A8533
:10238C00FB681B8D013B9AB2FB681A857A69396A26
:10239C00F86800F019FA0346002B0DD0FB681B6C93
:1023AC00042B07D1FB681B681A68FB681B6842F496
:1023BC0000721A6001231AE0FB681B8D002B94D16C
:1023CC00FB681B681A68FB681B6842F400721A6091
:1023DC00FB68202283F83D20FB68002283F83E2016
:1023EC00FB68002283F83C20002300E002231846FF
:1023FC001837BD4680BD00BF020010000000FFFF73
:10240C0080B588B002AFF8607A603B600B467B8188
:10241C00FB68DB6A7B617B69082B06D07B69012B2F
:10242C0003D07B6913F5803F08D1FB681B681A68E1
:10243C00FB681B6842F480721A600BE0FB681B6B34
:10244C00122B07D1FB681B681A68FB681B6842F4E7
:10245C0080721A603B6800937B6800224FF0011178
:10246C00F86800F04FF80346002B0DD0FB681B6892
:10247C001B6803F48073B3F5807F03D1FB684FF4C2
:10248C0000721A64032335E0FB681B69B3F5804FB7
:10249C0008D17B89DBB21A46FB681B6802F0FE028E
:1024AC001A611BE07B89DB11DBB203F00603DBB2A4
:1024BC0063F00F03DAB2FB681B681A613B687A6839
:1024CC000E49F86800F098F80346002B01D0012360
:1024DC0010E07B89DAB2FB681B681A613B687A688A
:1024EC000749F86800F088F80346002B01D0012357
:1024FC0000E0002318461837BD4680BD08000100D7
:10250C000200010080B584B000AFF860B9603B6098
:10251C001346FB7148E03B68B3F1FF3F44D0FEF734
:10252C0029FF0246BB69D31A3A689A4202D33B6828
:10253C00002B39D1BB681B0CDBB2012B0DD1FB6816
:10254C001B685B69DA43BB6813409BB2002B0CBF62
:10255C0001230023DBB21A460CE0FB681B689B6965
:10256C00DA43BB6813409BB2002B0CBF0123002342
:10257C00DBB21A46FB799A4216D1FB6800221A6329
:10258C00FB68202283F83D20FB68002283F83E2064
:10259C00FB681B6C43F02002FB681A64FB6800228A
:1025AC0083F83C20012323E0BB681B0CDBB2012B1E
:1025BC000DD1FB681B685B69DA43BB6813409BB2A7
:1025CC00002B0CBF01230023DBB21A460CE0FB6886
:1025DC001B689B69DA43BB6813409BB2002B0CBF92
:1025EC0001230023DBB21A46FB799A4293D00023D5
:1025FC0018461037BD4680BD80B584B000AFF8607A
:10260C00B9607A603B6071E0FB681B685B6903F43E
:10261C008063B3F5806F23D1FB681B681A68FB6875
:10262C001B6842F400721A60FB681B686FF48062CE
:10263C005A61FB6800221A63FB68202283F83D2054
:10264C00FB68002283F83E20FB681B6C43F00402FD
:10265C00FB681A64FB68002283F83C20012367E0C6
:10266C007B68B3F1FF3F41D0FEF784FE02463B6826
:10267C00D31A7A689A4202D37B68002B36D1BB6896
:10268C001B0CDBB2012B0CD1FB681B685B69DA43BA
:10269C00BB6813409BB2002B14BF01230023DBB299
:1026AC000BE0FB681B689B69DA43BB6813409BB269
:1026BC00002B14BF01230023DBB2002B16D0FB68C8
:1026CC0000221A63FB68202283F83D20FB6800225D
:1026DC0083F83E20FB681B6C43F02002FB681A64F5
:1026EC00FB68002283F83C20012321E0BB681B0C13
:1026FC00DBB2012B0CD1FB681B685B69DA43BB684E
:10270C0013409BB2002B14BF01230023DBB20BE060
:10271C00FB681B689B69DA43BB6813409BB2002BB8
:10272C0014BF01230023DBB2002B7FF46DAF002319
:10273C0018461037BD4680BD80B584B000AFF86038
:10274C00B9607A6034E0F86800F086F80346002B34
:10275C0001D0012334E0BB68B3F1FF3F28D0FEF772
:10276C0009FE02467B68D31ABA689A4202D3BB6848
:10277C00002B1DD1FB681B685B6903F08003802B69
:10278C0016D0FB6800221A63FB68202283F83D20D8
:10279C00FB68002283F83E20FB681B6C43F0200290
:1027AC00FB681A64FB68002283F83C20012307E0D5
:1027BC00FB681B685B6903F08003802BC3D100238B
:1027CC0018461037BD4680BD80B584B000AFF860A8
:1027DC00B9607A6034E0F86800F03EF80346002BEC
:1027EC0001D0012334E0BB68B3F1FF3F28D0FEF7E2
:1027FC00C1FD02467B68D31ABA689A4202D3BB6801
:10280C00002B1DD1FB681B685B6903F00403042BD0
:10281C0016D0FB6800221A63FB68202283F83D2047
:10282C00FB68002283F83E20FB681B6C43F02002FF
:10283C00FB681A64FB68002283F83C20012307E044
:10284C00FB681B685B6903F00403042BC3D10023F2
:10285C0018461037BD4680BD80B483B000AF786099
:10286C007B681B685B6903F48063B3F5806F1BD1D5
:10287C007B681B686FF480625A617B6800221A6364
:10288C007B68202283F83D207B68002283F83E2061
:10289C007B681B6C43F004027B681A647B68002223
:1028AC0083F83C20012300E0002318460C37BD467A
:1028BC0080BC704780B586B000AF78607B68002B19
:1028CC0001D1012372E27B681B6803F00103002B2A
:1028DC0000F08780924B5B6803F00C03042B0CD048
:1028EC008F4B5B6803F00C03082B12D18C4B5B688D
:1028FC0003F48033B3F5803F0BD1894B1B6803F491
:10290C000033002B6CD07B685B68002B68D10123F3
:10291C004CE27B685B68B3F5803F06D1804B1B684B
:10292C007F4A43F4803313602EE07B685B68002B96
:10293C000CD17B4B1B687A4A23F480331360784BA1
:10294C001B68774A23F4802313601DE07B685B6867
:10295C00B3F5A02F0CD1724B1B68714A43F4802342
:10296C0013606F4B1B686E4A43F4803313600BE0AB
:10297C006B4B1B686A4A23F480331360684B1B68EB
:10298C00674A23F4802313607B685B68002B13D0A9
:10299C00FEF7F0FC386108E0FEF7ECFC02463B6900
:1029AC00D31A642B01D9032300E25D4B1B6803F49B
:1029BC000033002BF0D014E0FEF7DCFC386108E0AB
:1029CC00FEF7D8FC02463B69D31A642B01D90323CA
:1029DC00ECE1534B1B6803F40033002BF0D100E007
:1029EC0000BF7B681B6803F00203002B63D04C4BC9
:1029FC005B6803F00C03002B0BD0494B5B6803F0B6
:102A0C000C03082B1CD1464B5B6803F48033002B62
:102A1C0016D1434B1B6803F00203002B05D07B68D7
:102A2C001B69012B01D00123C0E13D4B1B6823F036
:102A3C00F8027B685B69DB00394913430B603AE0B1
:102A4C007B681B69002B20D0364B01221A60FEF7E5
:102A5C0091FC386108E0FEF78DFC02463B69D31A05
:102A6C00022B01D90323A1E12D4B1B6803F00203B8
:102A7C00002BF0D02A4B1B6823F0F8027B685B69B3
:102A8C00DB00274913430B6015E0264B00221A602C
:102A9C00FEF770FC386108E0FEF76CFC02463B69FF
:102AAC00D31A022B01D9032380E11D4B1B6803F0C1
:102ABC000203002BF0D17B681B6803F00803002B8A
:102ACC003AD07B689B69002B19D0174B01221A60F6
:102ADC00FEF750FC386108E0FEF74CFC02463B69FF
:102AEC00D31A022B01D9032360E10D4B5B6A03F06F
:102AFC000203002BF0D0012000F0CEFA1CE00A4BB0
:102B0C0000221A60FEF736FC38610FE0FEF732FC4B
:102B1C0002463B69D31A022B08D9032346E100BFB6
:102B2C00001002400000424280044242924B5B6A19
:102B3C0003F00203002BE9D17B681B6803F004034C
:102B4C00002B00F0A6800023FB758B4BDB6903F098
:102B5C008053002B0DD1884BDB69874A43F080539F
:102B6C00D361854BDB6903F08053BB60BB680123E9
:102B7C00FB75824B1B6803F48073002B18D17F4BC1
:102B8C001B687E4A43F480731360FEF7F3FB3861D5
:102B9C0008E0FEF7EFFB02463B69D31A642B01D920
:102BAC00032303E1754B1B6803F48073002BF0D0F7
:102BBC007B68DB68012B06D16F4B1B6A6E4A43F0B6
:102BCC00010313622DE07B68DB68002B0CD16A4B90
:102BDC001B6A694A23F001031362674B1B6A664A3E
:102BEC0023F0040313621CE07B68DB68052B0CD11B
:102BFC00614B1B6A604A43F0040313625E4B1B6A11
:102C0C005D4A43F0010313620BE05B4B1B6A5A4AAB
:102C1C0023F001031362584B1B6A574A23F0040339
:102C2C0013627B68DB68002B15D0FEF7A3FB3861C1
:102C3C000AE0FEF79FFB02463B69D31A41F2883249
:102C4C00934201D90323B1E04B4B1B6A03F00203FF
:102C5C00002BEED014E0FEF78DFB38610AE0FEF796
:102C6C0089FB02463B69D31A41F28832934201D95F
:102C7C0003239BE0404B1B6A03F00203002BEED1B5
:102C8C00FB7D012B05D13C4BDB693B4A23F0805388
:102C9C00D3617B68DB69002B00F08780364B5B6867
:102CAC0003F00C03082B61D07B68DB69022B46D147
:102CBC00334B00221A60FEF75DFB386108E0FEF72B
:102CCC0059FB02463B69D31A022B01D903236DE051
:102CDC00294B1B6803F00073002BF0D17B681B6A37
:102CEC00B3F5803F08D1244B5B6823F400327B683A
:102CFC009B68214913434B601F4B5B6823F4741290
:102D0C007B68196A7B685B6A0B431B4913434B60F6
:102D1C001B4B01221A60FEF72DFB386108E0FEF711
:102D2C0029FB02463B69D31A022B01D903233DE050
:102D3C00114B1B6803F00073002BF0D035E0104BE7
:102D4C0000221A60FEF716FB386108E0FEF712FB52
:102D5C0002463B69D31A022B01D9032326E0064B0A
:102D6C001B6803F00073002BF0D11EE07B68DB695D
:102D7C00012B07D1012319E0001002400070004024
:102D8C00600042420B4B5B68FB60FB6803F48032D3
:102D9C007B681B6A9A4206D1FB6803F470127B684D
:102DAC005B6A9A4201D0012300E0002318461837D1
:102DBC00BD4680BD0010024080B584B000AF786085
:102DCC0039607B68002B01D10123D0E06A4B1B6872
:102DDC0003F007033A689A4210D9674B1B6823F03B
:102DEC00070265493B6813430B60634B1B6803F098
:102DFC0007033A689A4201D00123B8E07B681B684C
:102E0C0003F00203002B20D07B681B6803F0040343
:102E1C00002B05D0594B5B68584A43F4E063536070
:102E2C007B681B6803F00803002B05D0534B5B68D1
:102E3C00524A43F460535360504B5B6823F0F002EA
:102E4C007B689B684D4913434B607B681B6803F0A0
:102E5C000103002B40D07B685B68012B07D1474BEB
:102E6C001B6803F40033002B15D101237FE07B6832
:102E7C005B68022B07D1414B1B6803F00073002BDE
:102E8C0009D1012373E03D4B1B6803F00203002BB7
:102E9C0001D101236BE0394B5B6823F003027B68A3
:102EAC005B68364913434B60FEF764FAF8600AE03E
:102EBC00FEF760FA0246FB68D31A41F2883293425D
:102ECC0001D9032353E02D4B5B6803F00C027B68A4
:102EDC005B689B009A42EBD1274B1B6803F00703FE
:102EEC003A689A4210D2244B1B6823F007022249FD
:102EFC003B6813430B60204B1B6803F007033A68D5
:102F0C009A4201D0012332E07B681B6803F0040372
:102F1C00002B08D0194B5B6823F4E0627B68DB68FC
:102F2C00164913434B607B681B6803F00803002BA6
:102F3C0009D0124B5B6823F460527B681B69DB0081
:102F4C000E4913434B6000F021F802460B4B5B68B3
:102F5C001B0903F00F030A49CB5C22FA03F3094A5D
:102F6C001360094B1B681846FEF7C2F9002318467C
:102F7C001037BD4680BD00BF00200240001002404B
:102F8C00E0400008000000200400002080B487B05E
:102F9C0000AF0023FB600023BB6000237B61002398
:102FAC007B6000233B611E4B5B68FB60FB6803F09E
:102FBC000C03042B02D0082B03D027E0194B3B61E8
:102FCC0027E0FB689B0C03F00F03174AD35C7B6074
:102FDC00FB6803F48033002B10D0114B5B685B0C47
:102FEC0003F00103114AD35CBB607B680D4A03FB01
:102FFC0002F2BB68B2FBF3F37B6104E07B680C4A22
:10300C0002FB03F37B617B693B6102E0054B3B6197
:10301C0000BF3B6918461C37BD4680BC704700BFDB
:10302C000010024000127A00F84000080841000825
:10303C0000093D0080B400AF024B1B681846BD462A
:10304C0080BC70470000002080B500AFFFF7F2FF96
:10305C000246054B5B681B0A03F007030349CB5C74
:10306C0022FA03F3184680BD00100240F04000081D
:10307C0080B500AFFFF7DEFF0246054B5B68DB0A4D
:10308C0003F007030349CB5C22FA03F3184680BD17
:10309C0000100240F040000880B485B000AF7860AA
:1030AC000A4B1B680A4AA2FB03235B0A7A6802FBE1
:1030BC0003F3FB6000BFFB685A1EFA60002BF9D1CA
:1030CC0000BF00BF1437BD4680BC70470000002015
:1030DC00D34D621080B586B000AF786000233B61A1
:1030EC000023FB607B681B6803F00103002B7DD081
:1030FC000023FB754F4BDB6903F08053002B0DD184
:10310C004C4BDB694B4A43F08053D361494BDB6931
:10311C0003F08053BB60BB680123FB75464B1B68F7
:10312C0003F48073002B18D1434B1B68424A43F4C1
:10313C0080731360FEF71EF9386108E0FEF71AF988
:10314C0002463B69D31A642B01D903236DE03A4B39
:10315C001B6803F48073002BF0D0364B1B6A03F40E
:10316C004073FB60FB68002B2ED07B685B6803F41C
:10317C004073FA689A4227D02E4B1B6A23F4407393
:10318C00FB602E4B01221A602C4B00221A60294A3C
:10319C00FB681362FB6803F00103002B14D0FEF7ED
:1031AC00E9F838610AE0FEF7E5F802463B69D31A04
:1031BC0041F28832934201D9032336E01D4B1B6A3E
:1031CC0003F00203002BEED01A4B1B6A23F440725F
:1031DC007B685B68174913430B62FB7D012B05D1A0
:1031EC00144BDB69134A23F08053D3617B681B6853
:1031FC0003F00203002B08D00E4B5B6823F4404213
:10320C007B689B680B4913434B607B681B6803F01E
:10321C001003002B08D0074B5B6823F480027B68FB
:10322C00DB68044913434B60002318461837BD462E
:10323C0080BD00BF001002400070004040044242BC
:10324C0080B582B000AF78607B68002B01D1012380
:10325C0042E07B6893F84130DBB2002B06D17B68EF
:10326C00002283F840207868FDF756FF7B68242203
:10327C0083F841207B681B68DA687B681B6822F442
:10328C000052DA60786800F01DF97B681B681A69D7
:10329C007B681B6822F490421A617B681B685A6930
:1032AC007B681B6822F02A025A617B681B68DA680B
:1032BC007B681B6842F40052DA607B6800225A6417
:1032CC007B68202283F841207B68202283F84220EF
:1032DC007B6800225A63002318460837BD4680BD20
:1032EC0080B58AB002AFF860B9603B601346FB80D2
:1032FC0000237B61FB6893F84130DBB2202B6DD14E
:10330C00BB68002B02D0FB88002B01D1012366E0A7
:10331C00FB6800225A64FB68212283F84120FEF7E7
:10332C0029F87861FB68FA889A84FB68FA88DA8451
:10333C00FB689B68B3F5805F08D1FB681B69002BA9
:10334C0004D10023FB61BB68BB6103E0BB68FB617C
:10335C000023BB612AE03B6800937B69002280213B
:10336C00F86800F040F80346002B01D0032336E048
:10337C00FB69002B0BD1BB691B881A46FB681B68C9
:10338C00C2F308025A60BB690233BB6107E0FB69F8
:10339C001A78FB681B685A60FB690133FB61FB6898
:1033AC00DB8C9BB2013B9AB2FB68DA84FB68DB8C4A
:1033BC009BB2002BCFD13B6800937B69002240214C
:1033CC00F86800F010F80346002B01D0032306E048
:1033DC00FB68202283F84120002300E002231846DA
:1033EC002037BD4680BD80B590B000AFF860B960A5
:1033FC003B601346FB7150E0BB6CB3F1FF3F4CD00C
:10340C00BB6C002B07D0FDF7B5FF02463B68D31A07
:10341C00BA6C9A4241D2FB681B680C33BB62BB6A24
:10342C0053E8003F7B627B6A23F4D073FB63FB6839
:10343C001B680C33FA6B7A633B63396B7A6B41E82C
:10344C000023FB62FB6A002BE5D1FB681B6814337D
:10345C007B617B6953E8003F3B613B6923F00103CF
:10346C00BB63FB681B681433BA6B3A62FB61F96986
:10347C003A6A41E80023BB61BB69002BE5D1FB68CC
:10348C00202283F84120FB68202283F84220FB682D
:10349C00002283F8402003230FE0FB681B681A68A6
:1034AC00BB681340BA689A420CBF01230023DBB2FD
:1034BC001A46FB799A429FD0002318464037BD46E6
:1034CC0080BD000080B584B000AF78607B681B685D
:1034DC001B6923F440517B68DA687B681B680A43DC
:1034EC001A617B689A687B681B691A437B685B6905
:1034FC001343BB607B681B68DB6823F4B05323F079
:10350C000C037A681268B9680B43D3607B681B683C
:10351C005B6923F440717B689A697B681B680A437A
:10352C005A617B681B682C4A934203D1FFF7A0FDBC
:10353C00F86002E0FFF788FDF860FA6813469B001C
:10354C0013449A001A447B685B689B00B2FBF3F34C
:10355C00224AA2FB03235B091901FA6813469B005C
:10356C0013449A001A447B685B689B00B2FBF3F22D
:10357C001A4BA3FB02035B09642000FB03F3D31A71
:10358C001B013233154AA2FB03235B0903F0F00342
:10359C001944FA6813469B0013449A001A447B683A
:1035AC005B689B00B2FBF3F20C4BA3FB02035B09C1
:1035BC00642000FB03F3D31A1B013233074AA2FB2E
:1035CC0003235B0903F00F027B681B680A449A60B3
:1035DC0000BF1037BD4680BD003801401F85EB5140
:1035EC000EB46FF0004100B59CB01DAB029006907C
:1035FC00079104910848094953F8042B0591006878
:10360C0002A9019300F09EF90022029B1A701CB0D3
:10361C005DF804EB03B07047580000200802FFFF70
:10362C0003460244934200D1704703F8011BF9E7AB
:10363C00024610B5147813460132002CFAD1013B26
:10364C0011F8012B03F8012F002AF9D110BD00004D
:10365C00014B1868704700BF5800002070B5002659
:10366C000C4D0D4C641BA410A64209D100F07AFC41
:10367C0000260A4D0A4C641BA410A64205D170BD4D
:10368C0055F8043B98470136EEE755F8043B98474C
:10369C000136F2E740410008404100084041000873
:1036AC00444100087047704738B50546002940D0A2
:1036BC0051F8043C0C1F002BB8BFE41800F0DCF8E8
:1036CC001C4A136833B9636014602846BDE838405F
:1036DC0000F0D8B8A34208D9206821188B4201BF4A
:1036EC0019685B6809182160EDE71A465B680BB135
:1036FC00A342FAD911685018A0420BD1206801449A
:10370C00501883421160E0D118685B68084410605F
:10371C005360DAE702D90C232B60D6E72068211816
:10372C008B4201BF19685B680918216063605460A3
:10373C00CBE738BDE405002070B50E4E0C46316861
:10374C00054611B900F0AAFB30602146284600F06E
:10375C00A5FB431C0AD0C41C24F00304A04207D0D0
:10376C00211A284600F09AFB013001D14FF0FF34AA
:10377C00204670BDE80500202DE9F843CD1C25F04E
:10378C00030508350C2D38BF0C25002D074601DB31
:10379C00A94205D90C2300263B603046BDE8F883CE
:1037AC00DFF8D08000F068F8D8F800301C465CBB1D
:1037BC0029463846FFF7C0FF431C044655D1D8F8BC
:1037CC0000402646002E45D1002C48D023683146B7
:1037DC00384604EB030900F061FB81453FD12168B9
:1037EC0038466D1A2946FFF7A7FF013037D02368FA
:1037FC002B442360D8F80030002B38D05A68A242F2
:10380C002BD100225A600FE02268521B1FD40B2AC6
:10381C0017D96119A342256018BF5960636808BFA6
:10382C00C8F8001062514B60384604F10B0600F0EA
:10383C0029F826F00706231DF21AAED09B1BA350C5
:10384C00ABE7A3426268DDD1C8F80020ECE7234661
:10385C006468ACE734467668B4E71346CCE70C23CF
:10386C0038463B6000F00EF897E72560DCE75B60BC
:10387C00FFDE00BFE40500200148FFF713BF00BFC7
:10388C00E00500200148FFF70EBF00BFE005002057
:10389C002DE9F0471F468E688246BE420C46904684
:1038AC000B682CD88A8912F4906F26D06569096947
:1038BC0005EB4505A3EB010905EBD5757B1C4B44CA
:1038CC006D109D4238BF1D46530527D52946FFF77D
:1038DC0053FF064660B34A46216900F0FDFAA389FE
:1038EC0023F4906343F08003A38126614E44266049
:1038FC003E466561A5EB0905A560BE4200D93E4672
:10390C0032464146206800F0AFFA0020A3689B1BAA
:10391C00A360236833442360BDE8F0872A4600F097
:10392C00E9FA06460028E0D150462169FFF7BCFEB3
:10393C000C23CAF80030A3894FF0FF3043F040034A
:10394C00A381E9E72DE9F04F98468B8907461B06C2
:10395C000D4614469DB00ED50B6963B94021FFF797
:10396C000BFF2860286120B90C233B604FF0FF301F
:10397C00D0E040236B610023099320238DF829307C
:10398C0030234FF00109CDF80C80DFF8A0818DF8C1
:10399C002A3023469A4613F8012B0AB1252AF9D16D
:1039AC00BAEB040B0BD05B46224629463846FFF790
:1039BC006FFF013000F0A980099A5A4409929AF8D5
:1039CC000030002B00F0A18000234FF0FF32CDE936
:1039DC0005230AF1010A049307938DF853301A93C7
:1039EC005446052214F8011B504800F067FA049A5B
:1039FC00D8B9D00644BF20238DF85330110744BFEB
:103A0C002B238DF853309AF800302A2B15D05446BE
:103A1C0000204FF00A0C079A214611F8013B303B6D
:103A2C00092B4DD9B0B1079214E0A0EB080309FAA9
:103A3C0003F31343A2460493D2E7039B191D1B689F
:103A4C000391002BBBBF5B4242F00202079307932A
:103A5C00B8BF049223782E2B0CD163782A2B34D147
:103A6C00039B02341A1D1B680392002BB8BF4FF046
:103A7C00FF330593DFF8B8A003225046217800F0FD
:103A8C001DFA38B14022049BA0EB0A00824013437C
:103A9C000134049314F8011B062226488DF82810D3
:103AAC0000F00CFA002838D0234B1BBB039B0733C8
:103ABC0023F0070308330393099B3344099368E706
:103ACC000C4601200CFB0232A6E700234FF00A0C37
:103ADC00194601340593204610F8012B303A092A77
:103AEC0003D9002BC6D00591C4E7044601230CFB77
:103AFC000121F0E703AB00932A4638460F4B04A98B
:103B0C00AFF30080421C0646D6D1AB895B063FF56D
:103B1C002DAF09981DB0BDE8F08F03AB00932A467A
:103B2C003846064B04A900F07DF8EBE70A41000883
:103B3C001041000814410008000000009D380008E6
:103B4C002DE9F047164699468A680B690746934259
:103B5C00B8BF1346336091F843200C46DDF8208043
:103B6C000AB1013333602368990642BF33680233CC
:103B7C003360256815F0060506D104F1190AE368CF
:103B8C0032689B1AAB422BDC94F84320131E22683C
:103B9C0018BF0123920630D44946384604F143023B
:103BAC00C047013023D02368226903F00603042B9D
:103BBC0014BF002533684FF0000608BFE56804F118
:103BCC001A0408BFED1A54F8123C08BF25EAE57533
:103BDC009342C4BF9B1AED18B5421AD1002008E0DD
:103BEC000123524649463846C047013003D14FF0B5
:103BFC00FF30BDE8F0870135C1E73020E11881F8CE
:103C0C0043005A1C94F845102244023382F84310A6
:103C1C00C2E70123224649463846C0470130E6D068
:103C2C000136D9E72DE9FF470F7E9146782F804664
:103C3C000C469A460C9D01F1430207D8622F0AD814
:103C4C00002F00F0D580582F00F0C18004F1420500
:103C5C0084F842703AE0A7F16303152BF6D801A162
:103C6C0051F823F0C93C0008DD3C0008593C000821
:103C7C00593C0008593C0008593C0008DD3C000840
:103C8C00593C0008593C0008593C0008593C0008B4
:103C9C00E33D0008093D00089D3D0008593C000823
:103CAC00593C0008053E0008593C0008093D000835
:103CBC00593C0008593C0008A53D00082B681A1D0A
:103CCC001B682A6004F1420584F842300123A0E00D
:103CDC0020682B68070603F10401296001D51E68D2
:103CEC0003E04606FBD5B3F90060002E03DA2D2362
:103CFC00764284F843300A23594812E02B68206836
:103D0C00191D2960050601D51E6802E04106FBD588
:103D1C001E886F2F0CBF08230A235148002184F8FA
:103D2C0043106568002DA8BF2168A560A4BF21F0D1
:103D3C00040121600EB9002D4BD01546B6FBF3F1F2
:103D4C0003FB1167C75D05F8017D3746BB420E4684
:103D5C00F4D9082B0BD12368DE0708D523696168D9
:103D6C009942DEBF302305F8013C05F1FF35521BAB
:103D7C0022614B4621464046CDF800A003AAFFF72E
:103D8C00DFFE01304AD14FF0FF3004B0BDE8F087C0
:103D9C00236843F0200323607827324884F8457069
:103DAC00236829681F0651F8046B02D45F0648BFCC
:103DBC00B6B2DF0748BF43F02003296048BF236039
:103DCC001EB9236823F0200323601023A6E72448A0
:103DDC00E4E71546BDE72B682668181D6169286065
:103DEC0035061B6801D5196002E07006FBD51980F9
:103DFC00002315462361BCE72B6800211A1D2A609D
:103E0C001D686268284600F059F808B1401B6060D4
:103E1C0063682361002384F84330AAE72A464946A5
:103E2C0040462369D0470130ADD023689B0713D49B
:103E3C00E068039B9842B8BF1846A6E701233246B8
:103E4C0049464046D04701309DD00135E36803997F
:103E5C005B1AAB42F2DCEBE7002504F11906F5E73F
:103E6C001B4100082C410008884210B501EB0204EC
:103E7C0002D98442234607D8431EA14208D011F828
:103E8C00012B03F8012FF8E7014602448A4200D1C6
:103E9C0010BD13F8014D02F8014DF7E738B50023BA
:103EAC00054D044608462B60FDF7AAF9431C02D1C8
:103EBC002B6803B1236038BDDC050020034610B528
:103ECC00C9B202449342184601D1002003E00478A1
:103EDC0001338C42F6D110BD0A44914200F1FF33FC
:103EEC0000D1704710B511F8014B914203F8014F06
:103EFC00F9D110BD2DE9F041804614460E4621B98A
:103F0C001146BDE8F041FFF737BC2AB9FFF7CCFBEF
:103F1C0025462846BDE8F08100F01BF88442074690
:103F2C0002D8B4EB500F12D821464046FFF724FCC0
:103F3C0005460028EDD0BC422246314628BF3A4601
:103F4C00FFF7CAFF31464046FFF7AEFBE1E73546C7
:103F5C00DFE751F8043C181F002BBCBF0B58C018EE
:103F6C0070470000F8B500BFF8BC08BC9E4670470F
:0C3F7C00F8B500BFF8BC08BC9E467047BA
:103F880064617461206C6F690D0A000025642E2538
:103F980064000000256400006E68696574646F3A07
:103FA8002025642E25646F4300000000646F616D56
:103FB8003A2025642E2564002500000067696120E9
:103FC80074726920414443206C613A00000000008B
:103FD8000D0A0D0A0D0A0D0A0D0A000041542B4363
:103FE80047455245503D300D0A00000041542B43CF
:103FF8004D51545453544152540D0A0041542B43CB
:104008004D515454414343513D302C22636C6965F2
:104018006E744944220D0A0064617461206C6F69F2
:1040280020310D0A0000000064617461206C6F6922
:10403800320D0A0041542B434D515454434F4E4EB8
:104048004543543D302C227463703A2F2F746573A6
:10405800742E6D6F7371756974746F2E6F72673A11
:1040680031383833222C36302C300D0A000000004D
:1040780041542B434D515454544F5049433D302CD7
:10408800350D0A00766F6E616D0D0A0041542B43A1
:104098004D5154545041594C4F41443D302C3139C5
:1040A8000D0A000041542B434D5154545055423D84
:1040B800302C312C36302C302C300D0A000000000A
:1040C80041542B434D515454444953433D302C32B1
:1040D80030300D0A00000000000000000000000061
:1040E8000102030406070809000000000102030496
:1040F80002030405060708090A0B0C0D0E0F101021
:104108000102232D302B2000686C4C006566674542
:104118004647003031323334353637383941424337
:1041280044454600303132333435363738396162E8
:084138006364656600000000ED
:044140003101000841
:044144000D01000861
:104148000024F4001000000001000000000000003E
:10415800A40400200C0500207405002000000000C5
:104168000000000000000000000000000000000047
:104178000000000000000000000000000000000037
:104188000000000000000000000000000000000027
:0C41980000000000000000000C000020EF
:040000050800128558
:00000001FF
